{
  "_format": "hh-sol-artifact-1",
  "contractName": "TimeCapsule",
  "sourceName": "contracts/TimeCapsule.sol",
  "abi": [
    {
      "inputs": [],
      "stateMutability": "nonpayable",
      "type": "constructor"
    },
    {
      "anonymous": false,
      "inputs": [
        {
          "indexed": true,
          "internalType": "address",
          "name": "owner",
          "type": "address"
        },
        {
          "indexed": true,
          "internalType": "address",
          "name": "approved",
          "type": "address"
        },
        {
          "indexed": true,
          "internalType": "uint256",
          "name": "tokenId",
          "type": "uint256"
        }
      ],
      "name": "Approval",
      "type": "event"
    },
    {
      "anonymous": false,
      "inputs": [
        {
          "indexed": true,
          "internalType": "address",
          "name": "owner",
          "type": "address"
        },
        {
          "indexed": true,
          "internalType": "address",
          "name": "operator",
          "type": "address"
        },
        {
          "indexed": false,
          "internalType": "bool",
          "name": "approved",
          "type": "bool"
        }
      ],
      "name": "ApprovalForAll",
      "type": "event"
    },
    {
      "anonymous": false,
      "inputs": [
        {
          "indexed": false,
          "internalType": "uint256",
          "name": "id",
          "type": "uint256"
        },
        {
          "indexed": false,
          "internalType": "address",
          "name": "client",
          "type": "address"
        },
        {
          "indexed": false,
          "internalType": "uint256",
          "name": "date",
          "type": "uint256"
        }
      ],
      "name": "DueDateReset",
      "type": "event"
    },
    {
      "anonymous": false,
      "inputs": [
        {
          "indexed": false,
          "internalType": "uint256",
          "name": "id",
          "type": "uint256"
        },
        {
          "indexed": false,
          "internalType": "address",
          "name": "client",
          "type": "address"
        },
        {
          "indexed": false,
          "internalType": "uint256",
          "name": "date",
          "type": "uint256"
        }
      ],
      "name": "NewTimeCapsule",
      "type": "event"
    },
    {
      "anonymous": false,
      "inputs": [
        {
          "indexed": true,
          "internalType": "address",
          "name": "from",
          "type": "address"
        },
        {
          "indexed": true,
          "internalType": "address",
          "name": "to",
          "type": "address"
        },
        {
          "indexed": true,
          "internalType": "uint256",
          "name": "tokenId",
          "type": "uint256"
        }
      ],
      "name": "Transfer",
      "type": "event"
    },
    {
      "inputs": [
        {
          "internalType": "address",
          "name": "to",
          "type": "address"
        },
        {
          "internalType": "uint256",
          "name": "tokenId",
          "type": "uint256"
        }
      ],
      "name": "approve",
      "outputs": [],
      "stateMutability": "nonpayable",
      "type": "function"
    },
    {
      "inputs": [
        {
          "internalType": "address",
          "name": "owner",
          "type": "address"
        }
      ],
      "name": "balanceOf",
      "outputs": [
        {
          "internalType": "uint256",
          "name": "",
          "type": "uint256"
        }
      ],
      "stateMutability": "view",
      "type": "function"
    },
    {
      "inputs": [],
      "name": "baseURI",
      "outputs": [
        {
          "internalType": "string",
          "name": "",
          "type": "string"
        }
      ],
      "stateMutability": "view",
      "type": "function"
    },
    {
      "inputs": [
        {
          "internalType": "uint256",
          "name": "id",
          "type": "uint256"
        },
        {
          "internalType": "uint256",
          "name": "newDueDate",
          "type": "uint256"
        }
      ],
      "name": "calculateResetFee",
      "outputs": [
        {
          "internalType": "uint256",
          "name": "",
          "type": "uint256"
        }
      ],
      "stateMutability": "view",
      "type": "function"
    },
    {
      "inputs": [
        {
          "internalType": "uint256",
          "name": "tokenId",
          "type": "uint256"
        }
      ],
      "name": "creationDate",
      "outputs": [
        {
          "internalType": "uint256",
          "name": "",
          "type": "uint256"
        }
      ],
      "stateMutability": "view",
      "type": "function"
    },
    {
      "inputs": [
        {
          "internalType": "uint256",
          "name": "tokenId",
          "type": "uint256"
        }
      ],
      "name": "dueDate",
      "outputs": [
        {
          "internalType": "uint256",
          "name": "",
          "type": "uint256"
        }
      ],
      "stateMutability": "view",
      "type": "function"
    },
    {
      "inputs": [
        {
          "internalType": "uint256",
          "name": "tokenId",
          "type": "uint256"
        }
      ],
      "name": "getApproved",
      "outputs": [
        {
          "internalType": "address",
          "name": "",
          "type": "address"
        }
      ],
      "stateMutability": "view",
      "type": "function"
    },
    {
      "inputs": [
        {
          "internalType": "address",
          "name": "owner",
          "type": "address"
        },
        {
          "internalType": "address",
          "name": "operator",
          "type": "address"
        }
      ],
      "name": "isApprovedForAll",
      "outputs": [
        {
          "internalType": "bool",
          "name": "",
          "type": "bool"
        }
      ],
      "stateMutability": "view",
      "type": "function"
    },
    {
      "inputs": [],
      "name": "name",
      "outputs": [
        {
          "internalType": "string",
          "name": "",
          "type": "string"
        }
      ],
      "stateMutability": "view",
      "type": "function"
    },
    {
      "inputs": [
        {
          "internalType": "uint256",
          "name": "tokenId",
          "type": "uint256"
        }
      ],
      "name": "ownerOf",
      "outputs": [
        {
          "internalType": "address",
          "name": "",
          "type": "address"
        }
      ],
      "stateMutability": "view",
      "type": "function"
    },
    {
      "inputs": [
        {
          "internalType": "uint256",
          "name": "dueDate",
          "type": "uint256"
        },
        {
          "internalType": "string",
          "name": "uri",
          "type": "string"
        },
        {
          "internalType": "string",
          "name": "desc",
          "type": "string"
        }
      ],
      "name": "registerTimeCapsule",
      "outputs": [
        {
          "internalType": "uint256",
          "name": "",
          "type": "uint256"
        }
      ],
      "stateMutability": "nonpayable",
      "type": "function"
    },
    {
      "inputs": [
        {
          "internalType": "uint256",
          "name": "tokenId",
          "type": "uint256"
        },
        {
          "internalType": "uint256",
          "name": "newDueDate",
          "type": "uint256"
        },
        {
          "internalType": "uint256",
          "name": "fee",
          "type": "uint256"
        }
      ],
      "name": "resetDueDate",
      "outputs": [
        {
          "internalType": "bool",
          "name": "",
          "type": "bool"
        }
      ],
      "stateMutability": "payable",
      "type": "function"
    },
    {
      "inputs": [
        {
          "internalType": "address",
          "name": "from",
          "type": "address"
        },
        {
          "internalType": "address",
          "name": "to",
          "type": "address"
        },
        {
          "internalType": "uint256",
          "name": "tokenId",
          "type": "uint256"
        }
      ],
      "name": "safeTransferFrom",
      "outputs": [],
      "stateMutability": "nonpayable",
      "type": "function"
    },
    {
      "inputs": [
        {
          "internalType": "address",
          "name": "from",
          "type": "address"
        },
        {
          "internalType": "address",
          "name": "to",
          "type": "address"
        },
        {
          "internalType": "uint256",
          "name": "tokenId",
          "type": "uint256"
        },
        {
          "internalType": "bytes",
          "name": "_data",
          "type": "bytes"
        }
      ],
      "name": "safeTransferFrom",
      "outputs": [],
      "stateMutability": "nonpayable",
      "type": "function"
    },
    {
      "inputs": [
        {
          "internalType": "address",
          "name": "operator",
          "type": "address"
        },
        {
          "internalType": "bool",
          "name": "approved",
          "type": "bool"
        }
      ],
      "name": "setApprovalForAll",
      "outputs": [],
      "stateMutability": "nonpayable",
      "type": "function"
    },
    {
      "inputs": [
        {
          "internalType": "bytes4",
          "name": "interfaceId",
          "type": "bytes4"
        }
      ],
      "name": "supportsInterface",
      "outputs": [
        {
          "internalType": "bool",
          "name": "",
          "type": "bool"
        }
      ],
      "stateMutability": "view",
      "type": "function"
    },
    {
      "inputs": [],
      "name": "symbol",
      "outputs": [
        {
          "internalType": "string",
          "name": "",
          "type": "string"
        }
      ],
      "stateMutability": "view",
      "type": "function"
    },
    {
      "inputs": [
        {
          "internalType": "uint256",
          "name": "index",
          "type": "uint256"
        }
      ],
      "name": "tokenByIndex",
      "outputs": [
        {
          "internalType": "uint256",
          "name": "",
          "type": "uint256"
        }
      ],
      "stateMutability": "view",
      "type": "function"
    },
    {
      "inputs": [
        {
          "internalType": "address",
          "name": "owner",
          "type": "address"
        },
        {
          "internalType": "uint256",
          "name": "index",
          "type": "uint256"
        }
      ],
      "name": "tokenOfOwnerByIndex",
      "outputs": [
        {
          "internalType": "uint256",
          "name": "",
          "type": "uint256"
        }
      ],
      "stateMutability": "view",
      "type": "function"
    },
    {
      "inputs": [
        {
          "internalType": "uint256",
          "name": "tokenId",
          "type": "uint256"
        }
      ],
      "name": "tokenURI",
      "outputs": [
        {
          "internalType": "string",
          "name": "",
          "type": "string"
        }
      ],
      "stateMutability": "view",
      "type": "function"
    },
    {
      "inputs": [],
      "name": "totalSupply",
      "outputs": [
        {
          "internalType": "uint256",
          "name": "",
          "type": "uint256"
        }
      ],
      "stateMutability": "view",
      "type": "function"
    },
    {
      "inputs": [
        {
          "internalType": "address",
          "name": "from",
          "type": "address"
        },
        {
          "internalType": "address",
          "name": "to",
          "type": "address"
        },
        {
          "internalType": "uint256",
          "name": "tokenId",
          "type": "uint256"
        }
      ],
      "name": "transferFrom",
      "outputs": [],
      "stateMutability": "nonpayable",
      "type": "function"
    },
    {
      "inputs": [
        {
          "internalType": "uint256",
          "name": "tokenId",
          "type": "uint256"
        }
      ],
      "name": "viewTitle",
      "outputs": [
        {
          "internalType": "string",
          "name": "",
          "type": "string"
        }
      ],
      "stateMutability": "view",
      "type": "function"
    }
  ],
  "bytecode": "0x60806040523480156200001157600080fd5b506040518060400160405280600c81526020017f54696d652043617073756c6500000000000000000000000000000000000000008152506040518060400160405280600381526020017f5443430000000000000000000000000000000000000000000000000000000000815250620000966301ffc9a760e01b6200011860201b60201c565b8160069080519060200190620000ae92919062000221565b508060079080519060200190620000c792919062000221565b50620000e06380ac58cd60e01b6200011860201b60201c565b620000f8635b5e139f60e01b6200011860201b60201c565b6200011063780e9d6360e01b6200011860201b60201c565b5050620002d7565b63ffffffff60e01b817bffffffffffffffffffffffffffffffffffffffffffffffffffffffff19161415620001b5576040517f08c379a000000000000000000000000000000000000000000000000000000000815260040180806020018281038252601c8152602001807f4552433136353a20696e76616c696420696e746572666163652069640000000081525060200191505060405180910390fd5b6001600080837bffffffffffffffffffffffffffffffffffffffffffffffffffffffff19167bffffffffffffffffffffffffffffffffffffffffffffffffffffffff1916815260200190815260200160002060006101000a81548160ff02191690831515021790555050565b828054600181600116156101000203166002900490600052602060002090601f016020900481019282620002595760008555620002a5565b82601f106200027457805160ff1916838001178555620002a5565b82800160010185558215620002a5579182015b82811115620002a457825182559160200191906001019062000287565b5b509050620002b49190620002b8565b5090565b5b80821115620002d3576000816000905550600101620002b9565b5090565b6137f780620002e76000396000f3fe6080604052600436106101405760003560e01c80634f6ccce7116100b6578063a22cb4651161006f578063a22cb465146109a6578063b88d4fde14610a03578063c87b56dd14610b15578063e985e9c514610bc9578063f43d958414610c50578063f587da7c14610c9f57610140565b80634f6ccce7146107155780636352211e146107645780636c0360eb146107c957806370a0823114610859578063742548d9146108be57806395d89b411461091657610140565b806323b872dd1161010857806323b872dd14610330578063275019b0146103ab5780632f70da13146103fa5780632f745c59146104ae57806342842e0e1461051d5780634b69f8971461059857610140565b806301ffc9a71461014557806306fdde03146101b5578063081812fc14610245578063095ea7b3146102aa57806318160ddd14610305575b600080fd5b34801561015157600080fd5b5061019d6004803603602081101561016857600080fd5b8101908080357bffffffffffffffffffffffffffffffffffffffffffffffffffffffff19169060200190929190505050610cf8565b60405180821515815260200191505060405180910390f35b3480156101c157600080fd5b506101ca610d5f565b6040518080602001828103825283818151815260200191508051906020019080838360005b8381101561020a5780820151818401526020810190506101ef565b50505050905090810190601f1680156102375780820380516001836020036101000a031916815260200191505b509250505060405180910390f35b34801561025157600080fd5b5061027e6004803603602081101561026857600080fd5b8101908080359060200190929190505050610e01565b604051808273ffffffffffffffffffffffffffffffffffffffff16815260200191505060405180910390f35b3480156102b657600080fd5b50610303600480360360408110156102cd57600080fd5b81019080803573ffffffffffffffffffffffffffffffffffffffff16906020019092919080359060200190929190505050610e9c565b005b34801561031157600080fd5b5061031a610fe0565b6040518082815260200191505060405180910390f35b34801561033c57600080fd5b506103a96004803603606081101561035357600080fd5b81019080803573ffffffffffffffffffffffffffffffffffffffff169060200190929190803573ffffffffffffffffffffffffffffffffffffffff16906020019092919080359060200190929190505050610ff1565b005b3480156103b757600080fd5b506103e4600480360360208110156103ce57600080fd5b8101908080359060200190929190505050611067565b6040518082815260200191505060405180910390f35b34801561040657600080fd5b506104336004803603602081101561041d57600080fd5b8101908080359060200190929190505050611084565b6040518080602001828103825283818151815260200191508051906020019080838360005b83811015610473578082015181840152602081019050610458565b50505050905090810190601f1680156104a05780820380516001836020036101000a031916815260200191505b509250505060405180910390f35b3480156104ba57600080fd5b50610507600480360360408110156104d157600080fd5b81019080803573ffffffffffffffffffffffffffffffffffffffff1690602001909291908035906020019092919050505061122a565b6040518082815260200191505060405180910390f35b34801561052957600080fd5b506105966004803603606081101561054057600080fd5b81019080803573ffffffffffffffffffffffffffffffffffffffff169060200190929190803573ffffffffffffffffffffffffffffffffffffffff16906020019092919080359060200190929190505050611285565b005b3480156105a457600080fd5b506106ff600480360360608110156105bb57600080fd5b8101908080359060200190929190803590602001906401000000008111156105e257600080fd5b8201836020820111156105f457600080fd5b8035906020019184600183028401116401000000008311171561061657600080fd5b91908080601f016020809104026020016040519081016040528093929190818152602001838380828437600081840152601f19601f8201169050808301925050505050505091929192908035906020019064010000000081111561067957600080fd5b82018360208201111561068b57600080fd5b803590602001918460018302840111640100000000831117156106ad57600080fd5b91908080601f016020809104026020016040519081016040528093929190818152602001838380828437600081840152601f19601f8201169050808301925050505050505091929192905050506112a5565b6040518082815260200191505060405180910390f35b34801561072157600080fd5b5061074e6004803603602081101561073857600080fd5b8101908080359060200190929190505050611367565b6040518082815260200191505060405180910390f35b34801561077057600080fd5b5061079d6004803603602081101561078757600080fd5b810190808035906020019092919050505061138a565b604051808273ffffffffffffffffffffffffffffffffffffffff16815260200191505060405180910390f35b3480156107d557600080fd5b506107de6113c1565b6040518080602001828103825283818151815260200191508051906020019080838360005b8381101561081e578082015181840152602081019050610803565b50505050905090810190601f16801561084b5780820380516001836020036101000a031916815260200191505b509250505060405180910390f35b34801561086557600080fd5b506108a86004803603602081101561087c57600080fd5b81019080803573ffffffffffffffffffffffffffffffffffffffff169060200190929190505050611463565b6040518082815260200191505060405180910390f35b6108fe600480360360608110156108d457600080fd5b81019080803590602001909291908035906020019092919080359060200190929190505050611538565b60405180821515815260200191505060405180910390f35b34801561092257600080fd5b5061092b6117e5565b6040518080602001828103825283818151815260200191508051906020019080838360005b8381101561096b578082015181840152602081019050610950565b50505050905090810190601f1680156109985780820380516001836020036101000a031916815260200191505b509250505060405180910390f35b3480156109b257600080fd5b50610a01600480360360408110156109c957600080fd5b81019080803573ffffffffffffffffffffffffffffffffffffffff169060200190929190803515159060200190929190505050611887565b005b348015610a0f57600080fd5b50610b1360048036036080811015610a2657600080fd5b81019080803573ffffffffffffffffffffffffffffffffffffffff169060200190929190803573ffffffffffffffffffffffffffffffffffffffff1690602001909291908035906020019092919080359060200190640100000000811115610a8d57600080fd5b820183602082011115610a9f57600080fd5b80359060200191846001830284011164010000000083111715610ac157600080fd5b91908080601f016020809104026020016040519081016040528093929190818152602001838380828437600081840152601f19601f820116905080830192505050505050509192919290505050611a3d565b005b348015610b2157600080fd5b50610b4e60048036036020811015610b3857600080fd5b8101908080359060200190929190505050611ab5565b6040518080602001828103825283818151815260200191508051906020019080838360005b83811015610b8e578082015181840152602081019050610b73565b50505050905090810190601f168015610bbb5780820380516001836020036101000a031916815260200191505b509250505060405180910390f35b348015610bd557600080fd5b50610c3860048036036040811015610bec57600080fd5b81019080803573ffffffffffffffffffffffffffffffffffffffff169060200190929190803573ffffffffffffffffffffffffffffffffffffffff169060200190929190505050611ea2565b60405180821515815260200191505060405180910390f35b348015610c5c57600080fd5b50610c8960048036036020811015610c7357600080fd5b8101908080359060200190929190505050611f36565b6040518082815260200191505060405180910390f35b348015610cab57600080fd5b50610ce260048036036040811015610cc257600080fd5b810190808035906020019092919080359060200190929190505050611f53565b6040518082815260200191505060405180910390f35b6000806000837bffffffffffffffffffffffffffffffffffffffffffffffffffffffff19167bffffffffffffffffffffffffffffffffffffffffffffffffffffffff1916815260200190815260200160002060009054906101000a900460ff169050919050565b606060068054600181600116156101000203166002900480601f016020809104026020016040519081016040528092919081815260200182805460018160011615610100020316600290048015610df75780601f10610dcc57610100808354040283529160200191610df7565b820191906000526020600020905b815481529060010190602001808311610dda57829003601f168201915b5050505050905090565b6000610e0c82612001565b610e61576040517f08c379a000000000000000000000000000000000000000000000000000000000815260040180806020018281038252602c81526020018061365f602c913960400191505060405180910390fd5b6004600083815260200190815260200160002060009054906101000a900473ffffffffffffffffffffffffffffffffffffffff169050919050565b6000610ea78261138a565b90508073ffffffffffffffffffffffffffffffffffffffff168373ffffffffffffffffffffffffffffffffffffffff161415610f2e576040517f08c379a00000000000000000000000000000000000000000000000000000000081526004018080602001828103825260218152602001806137446021913960400191505060405180910390fd5b8073ffffffffffffffffffffffffffffffffffffffff16610f4d61201e565b73ffffffffffffffffffffffffffffffffffffffff161480610f7c5750610f7b81610f7661201e565b611ea2565b5b610fd1576040517f08c379a000000000000000000000000000000000000000000000000000000000815260040180806020018281038252603881526020018061355f6038913960400191505060405180910390fd5b610fdb8383612026565b505050565b6000610fec60026120df565b905090565b611002610ffc61201e565b826120f4565b611057576040517f08c379a00000000000000000000000000000000000000000000000000000000081526004018080602001828103825260318152602001806137656031913960400191505060405180910390fd5b6110628383836121e8565b505050565b6000600c6000838152602001908152602001600020549050919050565b606061108f8261138a565b73ffffffffffffffffffffffffffffffffffffffff166110ad61201e565b73ffffffffffffffffffffffffffffffffffffffff1614611119576040517f08c379a000000000000000000000000000000000000000000000000000000000815260040180806020018281038252602c815260200180613796602c913960400191505060405180910390fd5b61112282612001565b611177576040517f08c379a000000000000000000000000000000000000000000000000000000000815260040180806020018281038252602f8152602001806136e0602f913960400191505060405180910390fd5b600e60008381526020019081526020016000208054600181600116156101000203166002900480601f01602080910402602001604051908101604052809291908181526020018280546001816001161561010002031660029004801561121e5780601f106111f35761010080835404028352916020019161121e565b820191906000526020600020905b81548152906001019060200180831161120157829003601f168201915b50505050509050919050565b600061127d82600160008673ffffffffffffffffffffffffffffffffffffffff1673ffffffffffffffffffffffffffffffffffffffff16815260200190815260200160002061242b90919063ffffffff16565b905092915050565b6112a083838360405180602001604052806000815250611a3d565b505050565b60006112b1600a612445565b60006112bd600a61245b565b90506112d06112ca61201e565b82612469565b6112da818561265d565b6112e481866126e7565b6112ee8142612761565b6112f881846127db565b7f642645a83684f66214b6caa2a73bd0dbd31166098d825af99210a54798bf9f428161132261201e565b87604051808481526020018373ffffffffffffffffffffffffffffffffffffffff168152602001828152602001935050505060405180910390a1809150509392505050565b60008061137e83600261286590919063ffffffff16565b50905080915050919050565b60006113ba826040518060600160405280602981526020016135c16029913960026128919092919063ffffffff16565b9050919050565b606060098054600181600116156101000203166002900480601f0160208091040260200160405190810160405280929190818152602001828054600181600116156101000203166002900480156114595780601f1061142e57610100808354040283529160200191611459565b820191906000526020600020905b81548152906001019060200180831161143c57829003601f168201915b5050505050905090565b60008073ffffffffffffffffffffffffffffffffffffffff168273ffffffffffffffffffffffffffffffffffffffff1614156114ea576040517f08c379a000000000000000000000000000000000000000000000000000000000815260040180806020018281038252602a815260200180613597602a913960400191505060405180910390fd5b611531600160008473ffffffffffffffffffffffffffffffffffffffff1673ffffffffffffffffffffffffffffffffffffffff1681526020019081526020016000206128b0565b9050919050565b600061154261201e565b73ffffffffffffffffffffffffffffffffffffffff166115618561138a565b73ffffffffffffffffffffffffffffffffffffffff16146115cd576040517f08c379a000000000000000000000000000000000000000000000000000000000815260040180806020018281038252603581526020018061370f6035913960400191505060405180910390fd5b6115d684612001565b61162b576040517f08c379a000000000000000000000000000000000000000000000000000000000815260040180806020018281038252602c81526020018061368b602c913960400191505060405180910390fd5b611634846128c5565b6116a6576040517f08c379a000000000000000000000000000000000000000000000000000000000815260040180806020018281038252601d8152602001807f54696d6543617073756c653a204475652044617465206e6f742073657400000081525060200191505060405180910390fd5b348210156116ff576040517f08c379a00000000000000000000000000000000000000000000000000000000081526004018080602001828103825260318152602001806135ea6031913960400191505060405180910390fd5b6117098484611f53565b821015611761576040517f08c379a000000000000000000000000000000000000000000000000000000000815260040180806020018281038252602f815260200180613530602f913960400191505060405180910390fd5b61176c8460006126e7565b61177684846126e7565b7f971be64e89786b04f8bc10d9b3d7ea8fdd11b42095968b00de92d28de3098c7c846117a061201e565b85604051808481526020018373ffffffffffffffffffffffffffffffffffffffff168152602001828152602001935050505060405180910390a1600190509392505050565b606060078054600181600116156101000203166002900480601f01602080910402602001604051908101604052809291908181526020018280546001816001161561010002031660029004801561187d5780601f106118525761010080835404028352916020019161187d565b820191906000526020600020905b81548152906001019060200180831161186057829003601f168201915b5050505050905090565b61188f61201e565b73ffffffffffffffffffffffffffffffffffffffff168273ffffffffffffffffffffffffffffffffffffffff161415611930576040517f08c379a00000000000000000000000000000000000000000000000000000000081526004018080602001828103825260198152602001807f4552433732313a20617070726f766520746f2063616c6c65720000000000000081525060200191505060405180910390fd5b806005600061193d61201e565b73ffffffffffffffffffffffffffffffffffffffff1673ffffffffffffffffffffffffffffffffffffffff16815260200190815260200160002060008473ffffffffffffffffffffffffffffffffffffffff1673ffffffffffffffffffffffffffffffffffffffff16815260200190815260200160002060006101000a81548160ff0219169083151502179055508173ffffffffffffffffffffffffffffffffffffffff166119ea61201e565b73ffffffffffffffffffffffffffffffffffffffff167f17307eab39ab6107e8899845ad3d59bd9653f200f220920489ca2b5937696c318360405180821515815260200191505060405180910390a35050565b611a4e611a4861201e565b836120f4565b611aa3576040517f08c379a00000000000000000000000000000000000000000000000000000000081526004018080602001828103825260318152602001806137656031913960400191505060405180910390fd5b611aaf848484846128e5565b50505050565b6060611ac08261138a565b73ffffffffffffffffffffffffffffffffffffffff16611ade61201e565b73ffffffffffffffffffffffffffffffffffffffff1614611b4a576040517f08c379a000000000000000000000000000000000000000000000000000000000815260040180806020018281038252602c815260200180613796602c913960400191505060405180910390fd5b611b5382612001565b611ba8576040517f08c379a000000000000000000000000000000000000000000000000000000000815260040180806020018281038252602f8152602001806136e0602f913960400191505060405180910390fd5b611bb1826128c5565b611c23576040517f08c379a000000000000000000000000000000000000000000000000000000000815260040180806020018281038252601d8152602001807f54696d6543617073756c653a204475652044617465206e6f742073657400000081525060200191505060405180910390fd5b42611c2d83611067565b1115611c84576040517f08c379a000000000000000000000000000000000000000000000000000000000815260040180806020018281038252602281526020018061361b6022913960400191505060405180910390fd5b6000600d60008481526020019081526020016000208054600181600116156101000203166002900480601f016020809104026020016040519081016040528092919081815260200182805460018160011615610100020316600290048015611d2d5780601f10611d0257610100808354040283529160200191611d2d565b820191906000526020600020905b815481529060010190602001808311611d1057829003601f168201915b505050505090506000611d3e6113c1565b9050600081511415611d54578192505050611e9d565b600082511115611e255780826040516020018083805190602001908083835b60208310611d965780518252602082019150602081019050602083039250611d73565b6001836020036101000a03801982511681845116808217855250505050505090500182805190602001908083835b60208310611de75780518252602082019150602081019050602083039250611dc4565b6001836020036101000a0380198251168184511680821785525050505050509050019250505060405160208183030381529060405292505050611e9d565b80846040516020018083805190602001908083835b60208310611e5d5780518252602082019150602081019050602083039250611e3a565b6001836020036101000a03801982511681845116808217855250505050505090500182815260200192505050604051602081830303815290604052925050505b919050565b6000600560008473ffffffffffffffffffffffffffffffffffffffff1673ffffffffffffffffffffffffffffffffffffffff16815260200190815260200160002060008373ffffffffffffffffffffffffffffffffffffffff1673ffffffffffffffffffffffffffffffffffffffff16815260200190815260200160002060009054906101000a900460ff16905092915050565b6000600b6000838152602001908152602001600020549050919050565b6000806000611f6185611067565b90506000611f78428661295790919063ffffffff16565b5090508015611fbd576000611f96868461295790919063ffffffff16565b915050611fb164174876e8008261297f90919063ffffffff16565b90508094505050611ff5565b6000611fd2428461295790919063ffffffff16565b915050611fed64174876e8008261297f90919063ffffffff16565b905080945050505b82935050505092915050565b60006120178260026129cc90919063ffffffff16565b9050919050565b600033905090565b816004600083815260200190815260200160002060006101000a81548173ffffffffffffffffffffffffffffffffffffffff021916908373ffffffffffffffffffffffffffffffffffffffff160217905550808273ffffffffffffffffffffffffffffffffffffffff166120998361138a565b73ffffffffffffffffffffffffffffffffffffffff167f8c5be1e5ebec7d5bd14f71427d1e84f3dd0314c0f7b2291e5b200ac8c7c3b92560405160405180910390a45050565b60006120ed826000016129e6565b9050919050565b60006120ff82612001565b612154576040517f08c379a000000000000000000000000000000000000000000000000000000000815260040180806020018281038252602c815260200180613504602c913960400191505060405180910390fd5b600061215f8361138a565b90508073ffffffffffffffffffffffffffffffffffffffff168473ffffffffffffffffffffffffffffffffffffffff1614806121ce57508373ffffffffffffffffffffffffffffffffffffffff166121b684610e01565b73ffffffffffffffffffffffffffffffffffffffff16145b806121df57506121de8185611ea2565b5b91505092915050565b8273ffffffffffffffffffffffffffffffffffffffff166122088261138a565b73ffffffffffffffffffffffffffffffffffffffff1614612274576040517f08c379a00000000000000000000000000000000000000000000000000000000081526004018080602001828103825260298152602001806136b76029913960400191505060405180910390fd5b600073ffffffffffffffffffffffffffffffffffffffff168273ffffffffffffffffffffffffffffffffffffffff1614156122fa576040517f08c379a00000000000000000000000000000000000000000000000000000000081526004018080602001828103825260248152602001806134ba6024913960400191505060405180910390fd5b6123058383836129f7565b612310600082612026565b61236181600160008673ffffffffffffffffffffffffffffffffffffffff1673ffffffffffffffffffffffffffffffffffffffff1681526020019081526020016000206129fc90919063ffffffff16565b506123b381600160008573ffffffffffffffffffffffffffffffffffffffff1673ffffffffffffffffffffffffffffffffffffffff168152602001908152602001600020612a1690919063ffffffff16565b506123ca81836002612a309092919063ffffffff16565b50808273ffffffffffffffffffffffffffffffffffffffff168473ffffffffffffffffffffffffffffffffffffffff167fddf252ad1be2c89b69c2b068fc378daa952ba7f163c4a11628f55a4df523b3ef60405160405180910390a4505050565b600061243a8360000183612a65565b60001c905092915050565b6001816000016000828254019250508190555050565b600081600001549050919050565b600073ffffffffffffffffffffffffffffffffffffffff168273ffffffffffffffffffffffffffffffffffffffff16141561250c576040517f08c379a00000000000000000000000000000000000000000000000000000000081526004018080602001828103825260208152602001807f4552433732313a206d696e7420746f20746865207a65726f206164647265737381525060200191505060405180910390fd5b61251581612001565b15612588576040517f08c379a000000000000000000000000000000000000000000000000000000000815260040180806020018281038252601c8152602001807f4552433732313a20746f6b656e20616c7265616479206d696e7465640000000081525060200191505060405180910390fd5b612594600083836129f7565b6125e581600160008573ffffffffffffffffffffffffffffffffffffffff1673ffffffffffffffffffffffffffffffffffffffff168152602001908152602001600020612a1690919063ffffffff16565b506125fc81836002612a309092919063ffffffff16565b50808273ffffffffffffffffffffffffffffffffffffffff16600073ffffffffffffffffffffffffffffffffffffffff167fddf252ad1be2c89b69c2b068fc378daa952ba7f163c4a11628f55a4df523b3ef60405160405180910390a45050565b61266682612001565b6126bb576040517f08c379a000000000000000000000000000000000000000000000000000000000815260040180806020018281038252602c81526020018061368b602c913960400191505060405180910390fd5b80600d600084815260200190815260200160002090805190602001906126e29291906133ba565b505050565b6126f082612001565b612745576040517f08c379a000000000000000000000000000000000000000000000000000000000815260040180806020018281038252602c81526020018061368b602c913960400191505060405180910390fd5b80600c6000848152602001908152602001600020819055505050565b61276a82612001565b6127bf576040517f08c379a000000000000000000000000000000000000000000000000000000000815260040180806020018281038252602c81526020018061368b602c913960400191505060405180910390fd5b80600b6000848152602001908152602001600020819055505050565b6127e482612001565b612839576040517f08c379a000000000000000000000000000000000000000000000000000000000815260040180806020018281038252602c81526020018061368b602c913960400191505060405180910390fd5b80600e600084815260200190815260200160002090805190602001906128609291906133ba565b505050565b6000806000806128788660000186612ae8565b915091508160001c8160001c9350935050509250929050565b60006128a4846000018460001b84612b81565b60001c90509392505050565b60006128be82600001612c77565b9050919050565b600080600c60008481526020019081526020016000205414159050919050565b6128f08484846121e8565b6128fc84848484612c88565b612951576040517f08c379a00000000000000000000000000000000000000000000000000000000081526004018080602001828103825260328152602001806134886032913960400191505060405180910390fd5b50505050565b6000808383111561296e5760008091509150612978565b6001838503915091505b9250929050565b60008060008414156129985760016000915091506129c5565b60008385029050838582816129a957fe5b04146129bc5760008092509250506129c5565b60018192509250505b9250929050565b60006129de836000018360001b612ea1565b905092915050565b600081600001805490509050919050565b505050565b6000612a0e836000018360001b612ec4565b905092915050565b6000612a28836000018360001b612fac565b905092915050565b6000612a5c846000018460001b8473ffffffffffffffffffffffffffffffffffffffff1660001b61301c565b90509392505050565b600081836000018054905011612ac6576040517f08c379a00000000000000000000000000000000000000000000000000000000081526004018080602001828103825260228152602001806134666022913960400191505060405180910390fd5b826000018281548110612ad557fe5b9060005260206000200154905092915050565b60008082846000018054905011612b4a576040517f08c379a000000000000000000000000000000000000000000000000000000000815260040180806020018281038252602281526020018061363d6022913960400191505060405180910390fd5b6000846000018481548110612b5b57fe5b906000526020600020906002020190508060000154816001015492509250509250929050565b60008084600101600085815260200190815260200160002054905060008114158390612c48576040517f08c379a00000000000000000000000000000000000000000000000000000000081526004018080602001828103825283818151815260200191508051906020019080838360005b83811015612c0d578082015181840152602081019050612bf2565b50505050905090810190601f168015612c3a5780820380516001836020036101000a031916815260200191505b509250505060405180910390fd5b50846000016001820381548110612c5b57fe5b9060005260206000209060020201600101549150509392505050565b600081600001805490509050919050565b6000612ca98473ffffffffffffffffffffffffffffffffffffffff166130f8565b612cb65760019050612e99565b6000612e2063150b7a0260e01b612ccb61201e565b888787604051602401808573ffffffffffffffffffffffffffffffffffffffff1681526020018473ffffffffffffffffffffffffffffffffffffffff16815260200183815260200180602001828103825283818151815260200191508051906020019080838360005b83811015612d4f578082015181840152602081019050612d34565b50505050905090810190601f168015612d7c5780820380516001836020036101000a031916815260200191505b5095505050505050604051602081830303815290604052907bffffffffffffffffffffffffffffffffffffffffffffffffffffffff19166020820180517bffffffffffffffffffffffffffffffffffffffffffffffffffffffff8381831617835250505050604051806060016040528060328152602001613488603291398773ffffffffffffffffffffffffffffffffffffffff1661310b9092919063ffffffff16565b90506000818060200190516020811015612e3957600080fd5b8101908080519060200190929190505050905063150b7a0260e01b7bffffffffffffffffffffffffffffffffffffffffffffffffffffffff1916817bffffffffffffffffffffffffffffffffffffffffffffffffffffffff191614925050505b949350505050565b600080836001016000848152602001908152602001600020541415905092915050565b60008083600101600084815260200190815260200160002054905060008114612fa05760006001820390506000600186600001805490500390506000866000018281548110612f0f57fe5b9060005260206000200154905080876000018481548110612f2c57fe5b9060005260206000200181905550600183018760010160008381526020019081526020016000208190555086600001805480612f6457fe5b60019003818190600052602060002001600090559055866001016000878152602001908152602001600020600090556001945050505050612fa6565b60009150505b92915050565b6000612fb88383613123565b613011578260000182908060018154018082558091505060019003906000526020600020016000909190919091505582600001805490508360010160008481526020019081526020016000208190555060019050613016565b600090505b92915050565b60008084600101600085815260200190815260200160002054905060008114156130c3578460000160405180604001604052808681526020018581525090806001815401808255809150506001900390600052602060002090600202016000909190919091506000820151816000015560208201518160010155505084600001805490508560010160008681526020019081526020016000208190555060019150506130f1565b828560000160018303815481106130d657fe5b90600052602060002090600202016001018190555060009150505b9392505050565b600080823b905060008111915050919050565b606061311a8484600085613146565b90509392505050565b600080836001016000848152602001908152602001600020541415905092915050565b6060824710156131a1576040517f08c379a00000000000000000000000000000000000000000000000000000000081526004018080602001828103825260268152602001806134de6026913960400191505060405180910390fd5b6131aa856130f8565b61321c576040517f08c379a000000000000000000000000000000000000000000000000000000000815260040180806020018281038252601d8152602001807f416464726573733a2063616c6c20746f206e6f6e2d636f6e747261637400000081525060200191505060405180910390fd5b6000808673ffffffffffffffffffffffffffffffffffffffff1685876040518082805190602001908083835b6020831061326b5780518252602082019150602081019050602083039250613248565b6001836020036101000a03801982511681845116808217855250505050505090500191505060006040518083038185875af1925050503d80600081146132cd576040519150601f19603f3d011682016040523d82523d6000602084013e6132d2565b606091505b50915091506132e28282866132ee565b92505050949350505050565b606083156132fe578290506133b3565b6000835111156133115782518084602001fd5b816040517f08c379a00000000000000000000000000000000000000000000000000000000081526004018080602001828103825283818151815260200191508051906020019080838360005b8381101561337857808201518184015260208101905061335d565b50505050905090810190601f1680156133a55780820380516001836020036101000a031916815260200191505b509250505060405180910390fd5b9392505050565b828054600181600116156101000203166002900490600052602060002090601f0160209004810192826133f05760008555613437565b82601f1061340957805160ff1916838001178555613437565b82800160010185558215613437579182015b8281111561343657825182559160200191906001019061341b565b5b5090506134449190613448565b5090565b5b80821115613461576000816000905550600101613449565b509056fe456e756d657261626c655365743a20696e646578206f7574206f6620626f756e64734552433732313a207472616e7366657220746f206e6f6e20455243373231526563656976657220696d706c656d656e7465724552433732313a207472616e7366657220746f20746865207a65726f2061646472657373416464726573733a20696e73756666696369656e742062616c616e636520666f722063616c6c4552433732313a206f70657261746f7220717565727920666f72206e6f6e6578697374656e7420746f6b656e54696d6543617073756c653a20466565206973206c657373207468616e20776861742069732073686f756c642062654552433732313a20617070726f76652063616c6c6572206973206e6f74206f776e6572206e6f7220617070726f76656420666f7220616c6c4552433732313a2062616c616e636520717565727920666f7220746865207a65726f20616464726573734552433732313a206f776e657220717565727920666f72206e6f6e6578697374656e7420746f6b656e54696d6543617073756c653a20476976656e2066656520696e707574206973206c657373207468616e207061796d656e7454696d6543617073756c653a204475652064617465206e6f74207965742070617374456e756d657261626c654d61703a20696e646578206f7574206f6620626f756e64734552433732313a20617070726f76656420717565727920666f72206e6f6e6578697374656e7420746f6b656e4552433732314d657461646174613a2055524920736574206f66206e6f6e6578697374656e7420746f6b656e4552433732313a207472616e73666572206f6620746f6b656e2074686174206973206e6f74206f776e4552433732314d657461646174613a2055524920717565727920666f72206e6f6e6578697374656e7420746f6b656e54696d6543617073756c653a2052657175657374206973206e6f74206d616465206279207468652063617073756c65206f776e65724552433732313a20617070726f76616c20746f2063757272656e74206f776e65724552433732313a207472616e736665722063616c6c6572206973206e6f74206f776e6572206e6f7220617070726f76656454696d6543617073756c653a20555249206265696e67206163636573736564206279206e6f6e2d6f776e6572a2646970667358221220b0c6de5c195f4a62d76ee4779d62868ce085a7a776d623763dd82a961eb2487364736f6c63430007060033",
  "linkReferences": {},
  "deployedLinkReferences": {}
}